:10000000824F0000824E00003041B240D201000019
:10001000B24088130000B240E0000000B240E000AF
:100020000000B240E0000000B240E0000000B2403A
:10003000E0000000B240E000000082430000824384
:10004000000082430000824300008243000082439C
:100050000000F2407E000000F2407E00000082437B
:100060000000B240A10F0000B240E0000000B2402A
:10007000D201000082430000F2D20000F2D2000060
:1000800030410F120E120D120C1292120000B2F03B
:10009000FEFF00003C413D413E413F4100130F1235
:1000A0000E120D120C1292120000B2F0FEFF0000B0
:0A00B0003C413D413E413F41001339
:00000001FF
