:1021000031400021B240805A20013F4000000F932F
:1021100005242F839F4F42210011FB233F400000E5
:102120000F9304241F83CF430011FC23304036213A
:1021300030403421001331400021FF3F3040402126
:02214000FF3F5F
:10FFC00030213021302130213021302130213021A9
:10FFD0003021302130213021302130213021302199
:10FFE0003021302130213021302130213021302189
:10FFF00030213021302130213021302130210021A9
:0400000300002100D8
:00000001FF
