:020000020000FC
:100000000C9435000C9436040C944A040C945E0451
:100010000C9434000C9422040C9434000C9434009E
:100020000C9434000C9434000C9434000C94340080
:100030000C9434000C9434000C9434000C94340070
:100040000C9434000C9434000C9434000C94340060
:100050000C9434000C9434000C9434000C94340050
:100060000C9434000C94340018950FEF0DBF04E08D
:100070000EBF0FE704B900EC07B901EF0AB905E0BC
:100080000093680000E800936B0002E000936D00AD
:1000900005E00093690003E00DBB02E000938100DE
:1000A0006627002700931D02A0EFB5E08A2E9B2E45
:1000B000AA2EBB2ECA2EDB2EEA2EFB2E00E0CED6B9
:1000C00000E0019302E3019300E0019300E001935B
:1000D00004E10093100200E00093110219D505E13C
:1000E0000093100200E00093110212D506E1009384
:1000F000100200E0009311020BD507E100931002FB
:1001000000E00093110204D578942E9AE0E093D396
:100110002E98F4E6E8EC8FD3FA95E1F750D34FD35D
:1001200000E09CD600E0019303E3019300E001931B
:1001300000E001930AE10093100200E00093110235
:10014000CAD40CF047C04AE02E9AE0E074D32E984F
:10015000E0E071D34A95C1F7E4EB6DD3C3D300E07F
:100160007DD600E001930EE1019300E0019300E0F1
:10017000019301E00093100200E000931102ABD460
:10018000E0E0E4F402E00093100200E000931102CA
:10019000A2D4E1E09CF403E00093100200E000939D
:1001A000110299D4E2E054F404E00093100200E05C
:1001B0000093110290D4E3E00CF4CECFF0E03FD4F2
:1001C000A0E80A2742D42E9AE0E035D32E98E0E04A
:1001D00032D3F9CF09E078D40AE076D40BE074D4B6
:1001E00040E1DAD209E00093100201E1009311022C
:1001F000A2D40AE00093100202E1009311029BD402
:100200000BE00093100203E10093110294D44A958D
:1002100041F709E08AD404E004D409E080D40AE07C
:1002200084D404E0FED30AE07AD40BE07ED404E068
:10023000F8D30BE074D42E9A14D4C1D253D3ACD2D9
:1002400001E10093100209E0009311029ED402E143
:10025000009310020AE00093110297D403E1009387
:1002600010020BE00093110290D400E0F7D500E0FB
:10027000019302E3019300E0019300E001930CE09D
:100280000093100200E00093110242D400E0E6D592
:1002900000E0019302E3019300E0019300E0019389
:1002A0000DE00093100200E00093110231D400E051
:1002B000D5D500E0019302E3019300E0019300E053
:1002C00001930EE00093100200E00093110220D48D
:1002D00000E0C4D500E0019302E3019300E0019344
:1002E00000E001930FE00093100200E00093110280
:1002F0000FD40AE11AD408E094D300911A02002323
:100300000AF4BFD300E00BD401E10093100200E037
:100310000093110264D40AE108D409E082D300E01A
:10032000FED301E00093100200E00093110257D4C5
:1003300001E00093100201E100931102FCD30CE0F4
:100340000093100201E000931102F5D30FE0009337
:10035000100201E00093110218D40BE1E6D308E08B
:1003600060D300911B0200230AF48BD300E0D7D3A3
:1003700002E10093100200E00093110230D40BE17F
:10038000D4D309E04ED300E0CAD302E000931002B8
:1003900000E00093110223D402E00093100202E176
:1003A00000931102C8D30EE00093100202E0009304
:1003B0001102C1D30DE00093100202E0009311027C
:1003C000E4D30CE1B2D308E02CD300911C0200234B
:1003D0000AF457D300E0A3D303E10093100200E036
:1003E00000931102FCD30CE1A0D309E01AD300E082
:1003F00096D303E00093100200E000931102EFD3C4
:1004000003E00093100203E10093110294D300E093
:1004100025D50FEF019302EE019300E0019300E078
:10042000019303E00093100200E00093110253D304
:100430003CF403E00093100200E00093110268D343
:1004400000E00CD500E001930EE1019300E0019380
:1004500000E0019303E00093100200E0009311021A
:100460003AD33CF003E00093100200E00093110245
:100470004FD30CE00093100203E00093110285D3E8
:100480000DE00093100203E0009311027ED30EE012
:100490000093100203E00093110277D30FE0009362
:1004A000100203E00093110270D308E100931002E0
:1004B0000CE0009311022CD309E10093100204E137
:1004C0000093110225D398D20CE00093100209E1A9
:1004D000009311021DD304E10093100209E100937F
:1004E000110216D308E1009310020DE000931102EF
:1004F0000FD309E10093100205E10093110208D324
:100500007BD20DE00093100209E10093110200D3A9
:1005100005E10093100209E100931102F9D208E10C
:10052000009310020EE000931102F2D209E1009351
:10053000100206E100931102EBD25ED20EE00093AE
:10054000100209E100931102E3D206E100931002C8
:1005500009E100931102DCD208E1009310020FE0E0
:1005600000931102D5D209E10093100207E1009334
:100570001102CED241D20FE00093100209E10093A4
:100580001102C6D207E10093100209E100931102A3
:10059000BFD2A0911D02AA9511F404D0A4E0A093AB
:1005A0001D024ACE00E05AD400E0019300E001931E
:1005B00000E0019300E001930CE00093100200E0E2
:1005C0000093110288D23CF40CE00093100200E08A
:1005D000009311029DD20DE00093100200E0009301
:1005E000110279D23CF40DE00093100200E0009378
:1005F00011028ED20EE00093100200E0009311026F
:100600006AD23CF40EE00093100200E00093110265
:100610007FD20FE00093100200E0009311025BD242
:100620003CF40FE00093100200E00093110270D23E
:1006300000E014D400E0019304E6019300E001938C
:1006400000E001930CE00093100200E0009311021F
:1006500042D23CF00CE00093100200E00093110243
:1006600057D20DE00093100200E00093110233D244
:100670003CF00DE00093100200E00093110248D21C
:100680000EE00093100200E00093110224D23CF02F
:100690000EE00093100200E00093110239D20FE047
:1006A0000093100200E00093110215D23CF00FE01D
:1006B0000093100200E0009311022AD200E0CED392
:1006C00000E0019304E6019300E0019300E0019350
:1006D0000CE00093100200E0009311022CD20DE018
:1006E0000093100200E00093110225D20EE0009367
:1006F000100200E0009311021ED20FE000931002DE
:1007000000E00093110217D20CE00FD202E090D16A
:100710000CE005D20DE009D202E08AD10DE0FFD154
:100720000EE003D202E084D10EE0F9D10FE0FDD15A
:1007300002E07ED10FE0F3D10FE0F7D1AF93BF938A
:100740000EE0F3D1AF93BF930DE0EFD1AF93BF9322
:100750000CE0EBD1CD01BF91AF91DF91CF91FF9133
:10076000EF912A9A299A289A5F9A002741E253E04A
:100770008150900B08F42A98A150B00B08F42998E6
:10078000C150D00B08F42898E150F00B08F45F98A2
:100790004150500B68F708950FE300937E0000E08E
:1007A00000937B0002E037D001E1B9D101E033D002
:1007B00002E1B5D100E02FD003E1B1D10895E3E02B
:1007C000F0E03DD100931E020FE300937E0000E0B5
:1007D00000937B0003E01FD000911E0200230AF06B
:1007E00015D00AE19CD104E016D000911E0200232E
:1007F0000AF00CD00BE193D105E00DD000911E0260
:1008000000230AF003D00CE18AD1089503E0B02759
:100810000FEFA027089500937C0006EC00937A0068
:1008200000917A0006FDFCCFA0917800B09179008C
:10083000CC27DD27089507EC00000A95E9F7EA9533
:10084000D1F708956FEF7FB7499B07C000908400F0
:100850001090850066277FBF189580908400909047
:1008600085008018910866277FBF18956FEF7FB7C6
:100870004A9B07C0209084003090850066277FBF88
:100880001895A0908400B0908500A218B308662740
:100890007FBF18956FEF7FB74B9B07C040908400D8
:1008A0005090850066277FBF1895C0908400D09037
:1008B0008500C418D50866277FBF18956FEF7FB7EE
:1008C0001F9B07C0609084007090850066277FBFE3
:1008D0001895E0908400F0908500E618F7086627E8
:1008E0007FBF18956623F1F7A82DB92D40D0CC27EE
:1008F000DD2705E014D145D001E00093100205E0AA
:100900000093110205D16623F1F7AA2DBB2D2FD03C
:10091000CC27DD2705E003D134D002E0009310029C
:1009200005E000931102F4D06623F1F7AC2DBD2D44
:100930001ED0CC27DD2705E0F2D03BD004E00093A9
:10094000100205E000931102E3D06623F1F7AE2D0B
:10095000BF2D0DD0CC27DD2705E0E1D012D003E07C
:100960000093100205E000931102D2D00895BB233A
:100970003AF40FEFA027B02701E0A00F0027B01F27
:10098000089500E06BD205E0019300EF019300E0D1
:10099000019300E0019305E00093100200E0009352
:1009A0001102F3D005E0C1D002E03BD005E0B7D0A2
:1009B000089500E053D204E0019300E6019300E0C3
:1009C000019300E0019305E00093100200E0009322
:1009D0001102DBD050F405E041D200E0019300E0C9
:1009E000019300E0019300E0019305E09ED003E055
:1009F00018D005E094D0089508E10093100209E1B1
:100A000000931102C2D008E190D003E00AD008E1BF
:100A100086D009E10093100208E1009311028BD007
:100A20000895B595A795D795C7950A95D1F70895D7
:100A3000CC0FDD1FAA1FBB1F0A95D1F70895E1BD9A
:100A4000F2BD01E00FBB00B50895F894F999FECF0F
:100A5000E1BDF2BD00BD04E00FBB02E00FBB789426
:100A60000895EE27FF27EBDF00931A02E1E0FF274E
:100A7000E6DF00931B02E2E0FF27E1DF00931C02A8
:100A8000089500270C1BC02F00270D0BD02F002727
:100A90000A0BA02F00270B0BB02F08951093130201
:100AA0002093140230931502E0931602F09317027C
:100AB0000895109113022091140230911502E091D3
:100AC0001602F09117020895C9D1002701930193EE
:100AD00001930083089500911002C0D198D1009134
:100AE0001102BCD1A1D10091090210910F0201178E
:100AF0000091080210910E02010700910702109167
:100B00000D0201070091060210910C0201070895E1
:100B1000009111020AD00091100201D008959ED1D7
:100B2000B193A193D193C083089598D1B191A1912C
:100B3000D191C08108950091100290D1EF93FF935D
:100B400066D1009111028AD16FD1009109021091F2
:100B50000F02010F009303020091080210910E0290
:100B6000011F009302020091070210910D02011F64
:100B7000009301020091060210910C02011F0093E4
:100B80000002FF91EF915DD108950091100266D1AE
:100B9000EF93FF933CD10091110260D145D10091B8
:100BA000090210910F02011B009303020091080239
:100BB00010910E02010B00930202009107021091A6
:100BC0000D02010B009301020091060210910C022C
:100BD000010B00930002FF91EF9133D10895009132
:100BE00010023CD1EF93FF9312D10091110236D144
:100BF0001BD1CAD00027009300020093010200938A
:100C00000202009303020093040200930502109174
:100C1000090210930B021091080210930A0210911E
:100C20000702109309021091060210930802009324
:100C3000060200930702E89420E200910C02069558
:100C400000930C0200910D02079500930D02009194
:100C50000E02079500930E0200910F020795009374
:100C60000F0270F50EF456C00091050210910B02B0
:100C7000010F009305020091040210910A02011F66
:100C8000009304020091030210910902011F0093D6
:100C900003020091020210910802011F0093020258
:100CA0000091010210910702011F009301020091BF
:100CB000000210910602011F00930002A2F298F2B6
:100CC00000910B02000F00930B0200910A02001F1B
:100CD00000930A0200910902001F0093090200918B
:100CE0000802001F0093080200910702001F0093F2
:100CF000070200910602001F0093060208F46894A0
:100D00002A9509F09ACF2091120222230AF407D0E3
:100D1000889401C00894FF91EF9193D0089521E049
:100D20001FEF00910302021B0127009303022227F9
:100D300000910202020B01270093020200910102BE
:100D4000020B01270093010200910002020B012710
:100D500000930002089521E208942A95009103026D
:100D6000001F0093030200910202001F0093020281
:100D700000910102001F0093010200910002001F78
:100D80000093000250F708950091060210910C02A2
:100D9000202F2127209312020023DAF42FEF31E0D5
:100DA000009109020227030F0093090233270091E3
:100DB00008020227031F009308020091070202277E
:100DC000031F00930702009106020227031F0093EE
:100DD00006021123DAF42FEF31E000910F0202270F
:100DE000030F00930F02332700910E020227031F07
:100DF00000930E0200910D020227031F00930D02C3
:100E000000910C020227031F00930C020895019128
:100E100000930602019100930702019100930802DA
:100E20000191009309020895019100930C02019130
:100E300000930D02019100930E02019100930F02A5
:100E40000895009100020193009101020193009125
:100E5000020201930091030201930895E0E0F1E0A2
:0C0E6000000F000FE00F0027F01F0895A6
:00000001FF
