:020000020000FC
:100000000C9435000C942A050C943E050C94520572
:100010000C9434000C9416050C9434000C943400A9
:100020000C9434000C9434000C9434000C94340080
:100030000C9434000C9434000C9434000C94340070
:100040000C9434000C9434000C9434000C94340060
:100050000C9434000C9434000C9434000C94340050
:100060000C9434000C94340018950FEF0DBF04E08D
:100070000EBF0FE704B900EC07B901EF0AB905E0BC
:100080000093680000E800936B0002E000936D00AD
:1000900005E00093690003E00DBB02E000938100DE
:1000A00000270093180200931F0200932002009380
:1000B000210200931D026627A0EFB5E08A2E9B2E39
:1000C000AA2EBB2EEA2EFB2EA0E6B4E0CA2EDB2E13
:1000D00078942E9AE0E0A3D42E98F4E6E8EC9FD42E
:1000E000FA95E1F760D45FD400E0A7D700E0019370
:1000F00003E3019300E0019300E001930AE1009320
:10010000100200E000931102D5D50CF047C04AE080
:100110002E9AE0E084D42E98E0E081D44A95C1F78D
:10012000E4EB7DD4D3D400E088D700E001930EE166
:10013000019300E0019300E0019301E000931002BD
:1001400000E000931102B6D5E0E0E4F402E0009391
:10015000100200E000931102ADD5E1E09CF403E051
:100160000093100200E000931102A4D5E2E054F4E1
:1001700004E00093100200E0009311029BD5E3E03D
:100180000CF4CECFF0E04AD5A0E80A274DD52E9A40
:10019000E0E045D42E98E0E042D4F9CF0CE10093A2
:1001A000100200E00093110285D5C4F54AE02E9AB2
:1001B000E0E035D42E98E0E032D44A95C1F7E4EB84
:1001C0002ED484D40CE00093100204E000931102BA
:1001D0008ED50DE00093100204E00093110287D544
:1001E0000EE00093100204E00093110280D50FE0AE
:1001F0000093100204E00093110279D500E100930E
:10020000100204E00093110272D501E10093100284
:1002100004E0009311026BD572D2D1CF11D5C3D3B4
:1002200055D4009122020023A1F100E006D70FEF80
:1002300001930EEC019300E0019300E0019303E0D1
:100240000093100200E00093110234D55CF4009199
:100250002102039500932102023301F50027009348
:100260001F0217C000E050D5FBD400E047D503E0E3
:100270000093100200E0009311021CD554F000918D
:100280002002039500932002023341F40FEF009304
:100290001F020027009321020093200200912202F6
:1002A000002309F43EC000911D02039519F000934C
:1002B0001D023AC009E0F7D40AE0F5D40BE0F3D40C
:1002C00040E15ED309E00093100202E100931102C5
:1002D00021D50AE00093100203E1009311021AD520
:1002E0000BE00093100204E10093110213D54A952C
:1002F00041F709E009D504E083D409E0FFD40AE01E
:1003000003D504E07DD40AE0F9D40BE0FDD404E089
:1003100077D40BE0F3D40FEF0093180200931D0283
:1003200003C0002700931D022BD302E100931002AB
:1003300009E00093110218D503E1009310020AE0CE
:100340000093110211D504E1009310020BE0009319
:1003500011020AD50CE00093100204E00093110290
:10036000C6D40DE00093100204E000931102BFD444
:100370000EE00093100204E000931102B8D40FE0E5
:100380000093100204E000931102B1D400E1009345
:10039000100204E000931102AAD401E100931002BC
:1003A00004E000931102A3D40AE1AED40AE028D4F9
:1003B00000911A0200230AF453D400E09FD402E112
:1003C0000093100200E000931102F8D40AE19CD4DB
:1003D0000BE016D400E092D401E00093100200E09C
:1003E00000931102EBD401E00093100202E10093AC
:1003F000110290D400E021D600E0019300E00193C7
:100400000DED019302EB019301E00093100200E077
:1004100000931102D3D400E10093100201E0009395
:10042000110278D401E10093100201E0009311025F
:1004300071D40DE00093100201E00093110294D4F6
:100440000EE00093100201E0009311028DD40BE145
:100450005BD40AE0D5D300911B0200230AF400D438
:1004600000E04CD403E10093100200E0009311027D
:10047000A5D40BE149D40BE0C3D300E03FD402E0A4
:100480000093100200E00093110298D402E0009360
:10049000100203E1009311023DD40CE0009310021E
:1004A00002E00093110236D40FE00093100202E044
:1004B0000093110259D402E027D401E0A1D302E055
:1004C0001DD40DE00093100202E00093110222D42B
:1004D00001E10093100202E0009311021BD40EE030
:1004E0000093100202E0009311023ED400E1009359
:1004F000100202E00093110237D40CE105D40AE0A7
:100500007FD300911C0200230AF4AAD300E0F6D3A3
:1005100004E10093100200E0009311024FD40CE1BB
:10052000F3D30BE06DD300E0E9D303E000931002B6
:1005300000E00093110242D403E00093100204E1B2
:1005400000931102E7D300E078D50FEF019302EE9C
:10055000019300E0019300E0019303E00093100297
:1005600000E000931102A6D33CF403E000931002D4
:1005700000E000931102BBD300E05FD500E00193DF
:100580000EE1019300E0019300E0019303E000938A
:10059000100200E0009311028DD33CF003E00093C1
:1005A000100200E000931102A2D30CE000931002AD
:1005B00003E000931102D8D30DE00093100203E092
:1005C00000931102A7D30EE00093100203E0009302
:1005D0001102CAD30FE00093100203E0009311024E
:1005E00099D300E10093100203E000931102BCD301
:1005F00001E10093100203E0009311028BD300E0AD
:100600001CD500E001930AE0019300E0019300E0B3
:1006100001930CE00093100200E0009311024AD312
:100620003CF40CE00093100200E0009311025FD351
:100630000DE00093100200E0009311023BD33CF464
:100640000DE00093100200E00093110250D30EE081
:100650000093100200E0009311022CD33CF40EE052
:100660000093100200E00093110241D30FE00093C9
:10067000100200E0009311021DD33CF40FE0009340
:10068000100200E00093110232D300E10093100247
:1006900000E0009311020ED33CF400E1009310023D
:1006A00000E00093110223D301E10093100200E067
:1006B00000931102FFD23CF401E10093100200E02C
:1006C0000093110214D3A0911802C0911F02AC2311
:1006D00011F42E9801C02E9A009122020095A023B9
:1006E00061F40CE0E0D20DE0DED20EE0DCD20FE0EF
:1006F000DAD200E1D8D201E1D6D201D08FCD00E02C
:10070000D2D20CE00093100200E000931102D2D28A
:1007100014F40CE0C8D20DE00093100200E0009346
:100720001102C8D214F40DE0BED20EE00093100204
:1007300000E000931102BED214F40EE0B4D20FE038
:100740000093100200E000931102B4D214F40FE001
:10075000AAD200E10093100200E000931102AAD295
:1007600014F400E1A0D201E10093100200E0009334
:100770001102A0D214F401E196D200E05ED400E0B0
:10078000019304E6019300E0019300E001930CE083
:100790000093100200E0009311028CD23CF00CE0B8
:1007A0000093100200E000931102A1D20DE000932B
:1007B000100200E0009311027DD23CF00DE00093A6
:1007C000100200E00093110292D20EE0009310029A
:1007D00000E0009311026ED23CF00EE00093100294
:1007E00000E00093110283D20FE00093100200E0BA
:1007F000009311025FD23CF00FE00093100200E082
:100800000093110274D200E10093100200E0009303
:10081000110250D23CF000E10093100200E000937E
:10082000110265D201E10093100200E00093110271
:1008300041D23CF001E10093100200E0009311026C
:1008400056D20CE00093100200E00093110262D235
:100850000DE00093100200E0009311025BD20EE065
:100860000093100200E00093110254D20FE00093B5
:10087000100200E0009311024DD200E1009310023B
:1008800000E00093110246D201E10093100200E063
:10089000009311023FD20CE037D202E0B8D10CE055
:1008A0002DD20DE031D202E0B2D10DE027D20EE020
:1008B0002BD202E0ACD10EE021D20FE025D202E033
:1008C000A6D10FE01BD200E11FD202E0A0D100E1CF
:1008D00015D201E119D202E09AD101E10FD20FE065
:1008E00013D2AF93BF930EE00FD2AF93BF930DE03F
:1008F0000BD2AF93BF930CE007D2CD01BF91AF9164
:10090000DF91CF91FF91EF912A9A299A289A5F9AC5
:10091000002741E253E08150900B08F42A98A1503F
:10092000B00B08F42998C150D00B08F42898E15076
:10093000F00B08F45F984150500B68F701E1E4D1E7
:10094000AF93BF9300E1E0D1CD01BF91AF915E9A2B
:100950005D9A002741E253E08150900B08F45E98C5
:10096000A150B00B08F45D980000000000000000EA
:1009700000000000000000004150500B68F708958F
:100980000FE300937E0000E000937B0002E037D08D
:1009900002E1B4D101E033D003E1B0D100E02FD0C7
:1009A00004E1ACD10895E3E0F0E038D100931E02F9
:1009B0000FE300937E0000E000937B0003E01FD074
:1009C00000911E0200230AF015D00AE197D104E03D
:1009D00016D000911E0200230AF00CD00BE18ED13C
:1009E00005E00DD000911E0200230AF003D00CE1B7
:1009F00085D1089503E0B0270FEFA0270895009355
:100A00007C0006EC00937A0000917A0006FDFCCF92
:100A1000A0917800B0917900CC27DD27089507ECEC
:100A200000000A95E9F7EA95D1F708956FEF7FB7CF
:100A3000499B07C0009084001090850066277FBF07
:100A40001895809084009090850080189108662702
:100A50007FBF18956FEF7FB74A9B07C02090840037
:100A60003090850066277FBF1895A0908400B090D5
:100A70008500A218B30866277FBF18956FEF7FB770
:100A80004B9B07C0409084005090850066277FBF35
:100A90001895C0908400D0908500C418D5086627AA
:100AA0007FBF18956FEF7FB71F9B07C060908400D2
:100AB0007090850066277FBF1895E0908400F090C5
:100AC0008500E618F70866277FBF18956623F1F7BB
:100AD000A82DB92D58D0CC27DD2705E00FD15DD04A
:100AE00001E00093100205E00093110200D166239B
:100AF000F1F7AA2DBB2D47D0CC27DD2705E0FED08E
:100B00004CD002E00093100205E000931102EFD0F8
:100B10006623F1F7AC2DBD2D36D0CC27DD2705E0BF
:100B2000EDD053D004E00093100205E000931102D1
:100B3000DED06623F1F7AE2DBF2D25D0CC27DD27E3
:100B400005E0DCD02AD003E00093100205E000931A
:100B50001102CDD000270093220200E06ED200E007
:100B6000019301E0019300E0019300E0019304E0B0
:100B70000093100200E0009311029CD01CF40FEFD0
:100B8000009322020895BB233AF40FEFA027B02769
:100B900001E0A00F0027B01F089500E04ED205E04D
:100BA000019300EF019300E0019300E0019305E061
:100BB0000093100200E000931102D6D005E0A4D00B
:100BC00002E01ED005E09AD0089500E036D204E09D
:100BD000019300E6019300E0019300E0019305E03A
:100BE0000093100200E000931102BED010F405E063
:100BF0005AD005E089D003E003D005E07FD0089506
:100C0000B595A795D795C7950A95D1F70895CC0FB7
:100C1000DD1FAA1FBB1F0A95D1F70895E1BDF2BDE4
:100C200001E00FBB00B50895F894E1BDF2BD00BD31
:100C3000F999FECF04E00FBB02E00FBB7894089552
:100C4000EE27FF27EBDF00931A02E1E0FF27E6DF44
:100C500000931B02E2E0FF27E1DF00931C020895EE
:100C600000270C1BC02F00270D0BD02F00270A0BCD
:100C7000A02F00270B0BB02F089510931302209381
:100C8000140230931502E0931602F09317020895B0
:100C9000109113022091140230911502E091160276
:100CA000F09117020895C9D1002701930193019390
:100CB0000083089500911002C0D198D100911102D3
:100CC000BCD1A1D10091090210910F02011700912E
:100CD000080210910E0201070091070210910D0207
:100CE00001070091060210910C020107089500917E
:100CF00011020AD00091100201D008959ED1B19343
:100D0000A193D193C083089598D1B191A191D1912C
:100D1000C08108950091100290D1EF93FF9366D1A6
:100D2000009111028AD16FD10091090210910F0236
:100D3000010F009303020091080210910E02011F9F
:100D4000009302020091070210910D02011F00930F
:100D500001020091060210910C02011F0093000293
:100D6000FF91EF915DD108950091100266D1EF934C
:100D7000FF933CD10091110260D145D1009109024D
:100D800010910F02011B00930302009108021091C1
:100D90000E02010B009302020091070210910D0256
:100DA000010B009301020091060210910C02010B4D
:100DB00000930002FF91EF9133D10895009110024A
:100DC0003CD1EF93FF9312D10091110236D11BD188
:100DD000CAD0002700930002009301020093020290
:100DE000009303020093040200930502109109028C
:100DF00010930B021091080210930A02109107023F
:100E00001093090210910602109308020093060243
:100E100000930702E89420E200910C0206950093EB
:100E20000C0200910D02079500930D0200910E0235
:100E3000079500930E0200910F02079500930F0291
:100E400070F50EF456C00091050210910B02010FCF
:100E5000009305020091040210910A02011F009301
:100E600004020091030210910902011F0093030282
:100E70000091020210910802011F009302020091EA
:100E8000010210910702011F00930102009100026C
:100E900010910602011F00930002A2F298F2009145
:100EA0000B02000F00930B0200910A02001F009337
:100EB0000A0200910902001F009309020091080232
:100EC000001F0093080200910702001F0093070211
:100ED00000910602001F0093060208F468942A9508
:100EE00009F09ACF2091120222230AF407D08894A5
:100EF00001C00894FF91EF9193D0089521E01FEF76
:100F000000910302021B0127009303022227009194
:100F10000202020B01270093020200910102020B60
:100F200001270093010200910002020B01270093A8
:100F30000002089521E208942A9500910302001FFF
:100F40000093030200910202001F0093020200912D
:100F50000102001F0093010200910002001F009394
:100F6000000250F708950091060210910C02202F04
:100F70002127209312020023DAF42FEF31E00091B1
:100F800009020227030F0093090233270091080288
:100F90000227031F00930802009107020227031F84
:100FA00000930702009106020227031F0093060226
:100FB0001123DAF42FEF31E000910F020227030F23
:100FC00000930F02332700910E020227031F0093A4
:100FD0000E0200910D020227031F00930D020091E3
:100FE0000C020227031F00930C0208950191009345
:100FF00006020191009307020191009308020191FA
:10100000009309020895019100930C02019100934D
:101010000D02019100930E02019100930F020895B9
:1010200000910002019300910102019300910202DC
:1010300001930091030201930895E0E0F1E0000FB5
:0A104000000FE00F0027F01F0895D5
:00000001FF
