:10210000B240805A20013F4000000F9305242F83E6
:102110009F4FB0210011FB233F4000000F93042488
:102120001F83CF430011FC23304032213040302147
:10213000001331400021B240805A2001F240770064
:102140005600F2400F005700F2425800F2408CFF58
:102150005300F240D7FF1A00F24070003300F24003
:1021600070003200D2432E00D2432A00F240100009
:1021700026003B401900DBC300003F4050C3B012B3
:102180009421DBD300003F4050C3B0129421F33FB1
:102190003040AE21218381430000819F0000052C47
:1021A00091530000819F0000FB2B21533041FF3FE2
:10FFC0002C212C212C212C212C212C212C212C21C9
:10FFD0002C212C212C212C212C212C212C212C21B9
:10FFE0002C212C212C212C212C212C212C212C21A9
:10FFF0002C212C212C212C212C212C212C210021C5
:0400000300002100D8
:00000001FF
