:10210000B240805A20013F4000000F9305242F83E6
:102110009F4F4A2A0011FB233F4002000F930424E3
:102120001F83CF430011FC233040EA21304030218F
:102130000013B240805A2001F24077005600F2406E
:102140000F005700F2425800F2408CFF5300C24388
:102150002600F240F0FF2200C2432E00F2432A0084
:10216000F24036001B00F240D7FF1A00C2431F00A6
:10217000F2431E00C2433300F240B8FF3200C243B4
:102180003700F2433600D2D319003041524F544940
:102190004E4153206465204932430D00536D6172F6
:1021A000742043617264206F6B2E2E2E0D004A75D1
:1021B0006C696F2043657361720045736372697463
:1021C00061206F6B2E2E2E0D004C65697475726147
:1021D000206F6B2E2E2E0D00536D617274204361A3
:1021E0007264206E6F6B210D000031406020B012D0
:1021F00032217F400C00B01216237E40A0FF7F40AA
:10220000A0FFB0129C253F408C21B0121A2A7F40BB
:10221000A0FFB012D4294F9349204E434F43B01230
:1022200038243F409C21B0121A2A0D413E40AE2175
:102230003F400C00FD4E00001D531F83FB237D40DB
:102240000C000E414F43B012A6264B4F3F400A00F0
:10225000B0127C255E434F43B01238244B930420C8
:102260003F40BA21B0121A2A3F40E803B0127C2541
:102270005E434F43B01238247D400C000E413E5067
:1022800050004F43B012BA284F930F203F40C9214E
:10229000B0121A2A4B434F4B0F515F4F5000B012F0
:1022A000BE225B537B900C00F62BFF3F3F40D821B2
:1022B000B0121A2AFA3F3150A0003040482AB0121A
:1022C00068240F43304130313233343536373839B2
:1022D0004142434445460411040E0E04110409060C
:1022E0000609000000001F191313191F1F1F00000B
:1022F0000A000E11000000000A00110E00000E116D
:1023000004040700110E0202020408020202101463
:1023100014141B10101F0B124B4F3F401900FFF0FD
:102320007F000000FFD040000000B0126A257F400F
:102330003800B0129A237F403800B0129A237F40B1
:102340003800B0129A234F4BB0129A237F400600F8
:10235000B0129A235F43B0129A23C2430111C243C1
:1023600000113F402800B0127C253B4130410B1248
:102370003B401900FBD040000000C24F1D00FBD0C5
:1023800080FF0000B0126A25FBF07F0000003F4094
:102390000500B0127C253B4130410B123B40190037
:1023A000FBF0BFFF0000C24F1D00FBD080FF00000C
:1023B000B0126A25FBF07F0000003F400A00B01217
:1023C0007C253B4130415F43B0129A237F4080FF20
:1023D000B0129A23C2430111C24300113F400A00C8
:1023E000B0127C2530417F400E00B0129A2330415C
:1023F0007F400C00B0129A2330417F400F00B01292
:102400009A2330415F4201115F53C24F01116F9314
:102410000F24C24300117FF30F9302241F9305245E
:102420007F4080FFB0129A2330417F40C0FFFA3FC7
:102430004F43C2430111ED3F4D4F4F4EC24D00116E
:10244000C24E01117FF30F9302241F9303247D508A
:1024500080FF023C7D50C0FF4F4DB0129A233F4099
:102460000A00B0127C2530414E4F3E900A004424B1
:102470003E900D002624B0126E23D2530011F2902C
:102480001000001101243041C24300115F420111CC
:102490005F53C24F01116F9310247FF30F930824F1
:1024A0001F93012430417F40C0FFB0129A23EB3FBD
:1024B0007F4080FFB0129A2330414F43C243011145
:1024C000EC3F5F4201115F53C24F01116F93102423
:1024D0007FF30F9308241F93012430415F420011C2
:1024E0007F50C0FFE73F5F4200117F5080FFE23F17
:1024F0004F43C2430111EC3FC24300115F4201113F
:102500000F93D6271F93012430417F40C0FFD23F55
:102510000B120A120B4F7F404000B0129A234A431D
:102520006F4B1B53B0126E235A537A904000F82B16
:102530007F4080FFB0129A233A413B4130410B1259
:102540007F404000B0129A234B434F4B5F4FD6223F
:10255000B0126E235B537B904000F72B7F4080FFCF
:10256000B0129A233B413041304130410E430E9F1F
:10257000042C03431E530E9FFC2B30410B120A12F6
:102580000A4F0B430B9F072C3F405C0DB0126C258C
:102590001B530B9AF92B3A413B413041F240C1FFAA
:1025A0006900F2400F006800C24E6A00C2436B002F
:1025B00012C34F100E4F3EF07F00824E1A01F240C0
:1025C000C0FF6900F2D014006900E2B26900FD2783
:1025D000304112C34F100E4F3EF07F00824E1A0161
:1025E0003041F2D012006900E2B36900FD273041AA
:1025F000F2F0EFFF6900E2D36900E2B36900FD2762
:102600003041F2D014006900E2B26900FD27304188
:10261000F2F0EFFF6900E2D26900E2B26900FD2743
:102620003041F2B010006D00FC235F426D007FF27C
:102630007FF33041C24F6F00F2B20300FD275F42CB
:102640006D007FF27FF33041B012E225B012022616
:10265000B01222267FF330410B124B4FB012E2250D
:102660004F4BB01234264B4FB0120226B012222626
:102670004B5F4F4B3B4130410B120A124B4F4A4EBE
:10268000B012E2254F4BB01234264B4F4F4AB012D6
:1026900034264B5FB0120226B01222264B5F4F4BFE
:1026A0003A413B4130410B120A12091208124B4FBA
:1026B000084E494D4A43B012E2254F4BB012342622
:1026C0004B4F4F930C204F990A2C4F4A0F585A5397
:1026D0006F4FB01234264B5F02204A99F62BB0128E
:1026E0000226B01222264B5F4F4B384139413A4106
:1026F0003B4130410B120A124B4F4A4EB012E225B9
:102700004F4BB01234264B4F4F4AB01234264B5F1A
:10271000B0120226B01222264B5F4F4B3A413B418A
:1027200030410B120A1209124B4F4A4E494DB0125A
:10273000E2254F4BB01234264B4F4F4AB01234268D
:102740004B5F4F49B01234264B5FB0120226B012D5
:1027500022264B5F4F4B39413A413B4130410B12EE
:102760000A120912081207124B4F4A4E074D484CE5
:102770004943B012E2254F4BB01234264B4F4F4A1B
:10278000B01234264B5F0C204B980A2C4F490F5740
:1027900059536F4FB01234264B5F02204998F62BE5
:1027A000B0120226B01222264B5F4F4B3741384100
:1027B00039413A413B4130410B120A1209120812C9
:1027C000084F494E4A434B43B012E2254B990A2C1D
:1027D0004F4A0F585A536F4FB01234264B5F0220A6
:1027E0004A99F62BB0120226B01222264B5F4F4BAD
:1027F000384139413A413B4130410B120A120A4FEC
:102800004B43B012F025F2B26D0001245B43E2B2FB
:102810000300FD27DA426E000000B0121026B0124D
:1028200022264B5F4F4B3A413B4130410B120A127B
:1028300009120812084F494E4B434A43B012F02583
:102840004A99112CF2B26D0001245A53E2B20300EE
:10285000FD274F4B0F58DF426E0000005B534A9339
:1028600002204B99EF2BB0121026B01222264A5F9D
:102870004F4A384139413A413B4130410B120A122B
:102880004B4F0A4EB012E2254F4BB01234264B4F3D
:10289000B012F025F2B26D0001245B53E2B20300E6
:1028A000FD27DA426E000000B0121026B012222678
:1028B0004B5F4F4B3A413B4130410B120A12091218
:1028C00008124B4F084E494D4A43B012E2254F4B78
:1028D000B01234264B4FB012F0254B9313204B9976
:1028E000112CF2B26D0001245B53E2B20300FD270C
:1028F0004F4A0F58DF426E0000005A534B9302209C
:102900004A99EF2BB0121026B01222264B5F4F4B84
:10291000384139413A413B4130410B120A12091208
:102920004B4F4A4E094DB012E2254F4BB0123426A0
:102930004B4F4F4AB01234264B5FB012F025F2B223
:102940006D0001245B53E2B20300FD27D9426E0003
:102950000000B0121026B01222264B5F4F4B3941B7
:102960003A413B4130410B120A1209120812071278
:102970004B4F4A4E074D484C4943B012E2254F4B4E
:10298000B01234264B4F4F4AB01234264B5FB01270
:10299000F0254B9313204B98112CF2B26D000124BB
:1029A0005B53E2B20300FD274F490F57DF426E0031
:1029B000000059534B9302204998EF2BB012102678
:1029C000B01222264B5F4F4B3741384139413A41D3
:1029D0003B413041B012D225B01248267FF330413E
:1029E000F24081FF6100F2426000C24F6200C243C8
:1029F0006300C24E6400F24080FF61003041D2B3F8
:102A00000300FD275F4266007FF330414E4FE2B383
:102A10000300FD27C24E670030410B120B4F0E43DF
:102A20006F4B4F9309248F111B53B012BE220E4FD0
:102A30000F93F6370F4E063C0E93FC3B3F400A00C7
:0A2A4000B012BE223B413041FF3FBF
:10FFC0002C212C212C212C212C212C212C212C21C9
:10FFD0002C212C212C212C212C212C212C212C21B9
:10FFE0002C212C212C212C212C212C212C212C21A9
:10FFF0002C212C212C212C212C212C212C210021C5
:0400000300002100D8
:00000001FF
