:10210000B240805A20013F4000000F9305242F83E6
:102110009F4FB0240011FB233F4002000F93042483
:102120001F83CF430011FC23304042213040302137
:102130000013303132333435363738394142434475
:10214000454631400021B0127A21B012B8217F40BB
:102150000E00B012B4227F404A00B012EA213F4084
:102160000A00B0120E22D2B30300F527B012DC2110
:10217000B0120624F03F3040AE24B240805A200115
:102180004F43C293F91001245F43C24F5700D2421C
:10219000F8105600F24088FF5800F24084FF5300C8
:1021A000F240F0FF2200F24030001B00F240DFFF5F
:1021B0001A00F2431E003041F24081FF6100C24329
:1021C0006000F24082FF6200F24006006300F240CD
:1021D0000C006400F24080FF61003041D2B3030084
:1021E000FD275F4266007FF330414E4FE2B30300AC
:1021F000FD27C24E670030410343034330410E4385
:102200000E9F042C03431E530E9FFC2B30410B12D8
:102210000A120A4F0B430B9F072C3F402003B012BA
:10222000FE211B530B9AF92B3A413B4130414E435F
:10223000D2B3200002207E403100E2B32000022011
:102240007E403200E2B2200002207E403300F2B233
:10225000200002207E4034004F4E30410B12B0125D
:102260002E224B4F1F43B0120E224B93F8274F4B99
:102270003B413041033C1F43B0120E22B0122E22CC
:102280004F93F92330410B124B4FB0122E224F9B2C
:1022900004241F43B0120E22F83FB01274223B41B7
:1022A00030410B12B0125C224B4FB01274224F4BD4
:1022B0003B4130410B124B4F3F401900FFF07F0074
:1022C0000000FFD040000000B012F8217F4038002D
:1022D000B01238237F403800B01238237F403800D6
:1022E000B01238234F4BB01238237F400600B01293
:1022F00038235F43B0123823C2430111C243001197
:102300003F402800B0120E223B4130410B123B40AF
:102310001900FBD040000000C24F1D00FBD080FF21
:102320000000B012F821FBF07F0000003F400500E4
:10233000B0120E223B4130410B123B401900FBF022
:10234000BFFF0000C24F1D00FBD080FF0000B01295
:10235000F821FBF07F0000003F400A00B0120E227F
:102360003B4130415F43B01238237F4080FFB012C1
:102370003823C2430111C24300113F400A00B0128A
:102380000E2230417F400E00B012382330417F4092
:102390000C00B012382330417F400F00B0123823B8
:1023A00030415F4201115F53C24F01116F930F24FF
:1023B000C24300117FF30F9302241F9305247F4033
:1023C00080FFB012382330417F40C0FFFA3F4F43B7
:1023D000C2430111ED3F4D4F4F4EC24D0011C24E51
:1023E00001117FF30F9302241F9303247D5080FF7C
:1023F000023C7D50C0FF4F4DB01238233F400A00D1
:10240000B0120E2230414E4F3E900A0044243E90BE
:102410000D002624B0120C23D2530011F2901000AC
:10242000001101243041C24300115F4201115F538A
:10243000C24F01116F9310247FF30F9308241F9351
:10244000012430417F40C0FFB0123823EB3F7F4072
:1024500080FFB012382330414F43C2430111EC3F9B
:102460005F4201115F53C24F01116F9310247FF33C
:102470000F9308241F93012430415F4200117F50C5
:10248000C0FFE73F5F4200117F5080FFE23F4F43B4
:10249000C2430111EC3FC24300115F4201110F938F
:1024A000D6271F93012430417F40C0FFD23FFF3F1A
:10FFC0002C212C212C212C212C212C212C212C21C9
:10FFD0002C212C212C212C212C212C212C212C21B9
:10FFE0002C212C212C212C212C212C212C212C21A9
:10FFF0002C212C212C212C212C212C212C210021C5
:0400000300002100D8
:00000001FF
